:020000040800F2
:100000006821002045010008490100084B01000853
:1000100000000000000000000000000000000000E0
:100020000000000000000000000000004D0100087A
:1000300000000000000000004F010008510100080E
:100040005301000855010008570100085901000834
:100050005B0100085D0100085F0100086101000804
:1000600063010008650100086701000869010008D4
:100070006B0100086D0100086F01000871010008A4
:100080007301000875010008770100087901000874
:100090007B0100087D0100087F0100088101000844
:1000A0008301000800000000000000008501000836
:1000B00087010008890100088B0100088D010008F4
:1000C00000F002F800F02FF80CA030C8083824180F
:1000D0002D18A246671EAB4654465D46AC4201D180
:1000E00000F021F87E460F3E0FCCB6460126334283
:1000F00000D0FB1AA246AB4633431847F405000074
:1001000004060000103A02D378C878C1FAD8520722
:1001100001D330C830C101D504680C6070471FB5E9
:100120001FBD10B510BD00F046F81146FFF7F7FFF0
:1001300000F084F900F05EF803B4FFF7F2FF03BCAF
:1001400000F064F815480047FEE7FEE7FEE7FEE72B
:10015000FEE7FEE7FEE7FEE7FEE7FEE7FEE7FEE777
:10016000FEE7FEE7FEE7FEE7FEE7FEE7FEE7FEE767
:10017000FEE7FEE7FEE7FEE7FEE7FEE7FEE7FEE757
:10018000FEE7FEE7FEE7FEE7FEE7FEE7FEE700002C
:1001900003480449044A054B70470000C1000008A9
:1001A00068010020682100206811002068110020EB
:1001B000704770477047754600F024F8AE4605005A
:1001C00069465346C008C000854618B020B5FFF701
:1001D000DFFF60BC00274908B6460026C0C5C0C581
:1001E000C0C5C0C5C0C5C0C5C0C5C0C5403D49002B
:1001F0008D46704710B50446C046C0462046FFF7FE
:100200009BFF10BD004870470401002001491820E1
:10021000ABBEFEE7260002007047F3B584B003468C
:10022000FF21FF2201200390A020029000261CE065
:1002300018785B1C009000984140002712E014469B
:100240000D4652104910E007C00F002801D0802051
:100250000143E807C00F002803D0029842400398EA
:1002600041407F1C082FEAD3761C05988642DFDBCD
:10027000080210430190019806B0F0BD1448C0690F
:10028000102108431249C86112484860052088605F
:10029000FF200730C86000BF0D480068C007C00FCE
:1002A0000028F9D000BF0A48006802210840002851
:1002B000F9D000BF06480068042108400028F9D0A2
:1002C00000BF03480068082108400028F9D07047A3
:1002D000000002400408000010B51048C0698021E9
:1002E00008430E49C8610846806A090208430B4961
:1002F000886202200A4948622E2088626020C86213
:100300000848086330208863054940314860002070
:100310008860072000F008F810BD000000000240CF
:100320000080034001030000C206D20E012191406B
:10033000014A11607047000000E100E00B48C0690D
:100340000121C90508430949C8616120C000084965
:100350004860FF20413088600648C860002048613E
:10036000044888610020C861704700000000024016
:1003700000800B40FFFF00000948C06901214907C8
:1003800008430749C861022006494860FF20886089
:10039000C86000204861FF2088610020C861704764
:1003A0000000024000800E4030B50446207801284D
:1003B0003AD11E48006820182038807F00021B496F
:1003C000096861182039C97F084305461748006845
:1003D000811E2046FFF721FF154908800846008846
:1003E000854220D1002008806078032804D00628A8
:1003F00009D0102815D10DE00E4801680E4800689C
:1004000000F054F80EE00B4801680B48006800F05B
:10041000CFF807E0074801680748006800F0FEF8D9
:1004200000E000BF00BF00BF30BD0000380000206A
:100430001A0000203C0000202C0000203720144926
:1004400009680880022013490968088003201249BE
:1004500009680880042011490968088005201049AE
:1004600009680880FFF70AFFFFF736FFFFF784FFF0
:10047000FFF764FF0AE00B480068012806D100205E
:100480000849086008480068FFF78EFFF3E700009E
:1004900004000020080000200C00002010000020B4
:1004A00014000020300000202C00002030B504464D
:1004B0000D46A0780002E1780843344908602079AD
:1004C0000002617908433249087000201FE02F497B
:1004D0000968091849002F4A525CE11C2E4B1B7811
:1004E000CA542D490978491C2B4A117027490968BB
:1004F0000918491C4900274A525CE11C264B1B780D
:10050000CA5425490978491C234A1170801C204986
:10051000097849008142DADC1F480078A0701E4843
:100520000178C91C2046FFF778FE1C490880084660
:1005300000880112E01C184A12788154164800788D
:10054000401C1549087015480178E01C124A1278C1
:10055000815411480078001D1149086000200B49A2
:1005600008600B4908700D4908800B49087001208C
:100570000C490860012D02D120780B490860022D3A
:1005800002D120780949086030BD00002000002019
:100590001C000020640000201D0000201A00002024
:1005A0003800002034000020000003400080034099
:1005B00010B582781202C3781A43114B1A6002797F
:1005C000120243791A4313B20D4A126852000D4CBD
:1005D000A3520D4A136800229A5E0C4B1A60002247
:1005E000074B1A6001220A4B1A60012902D10278D6
:1005F000084B1A60022902D10278074B1A6010BD1D
:1006000020000020640000200000002000800B403B
:1006100034000020000003400080034030B5044651
:100620000D46A0780002E178084327490860207948
:1006300000026179084325490870A07924490860BF
:1006400000200DE0E11D0A5C1F49096809184900F6
:10065000204B5A5220490978491C1F4A1170401CEE
:100660001A4909788842EDDB1B4800780012207196
:1006700019480078607106212046FFF7CEFD174922
:100680000880084600880012A07108460078E071D2
:1006900001201349086008201249086000200E4913
:1006A00008700E4908800849086008490870084920
:1006B0000860012D02D120780B490860022D02D17B
:1006C00020780A49086030BD200000201C0000206E
:1006D00024000020640000201D0000201A000020DB
:1006E0003400002038000020000003400080034058
:1006F000000700080000002064000000040100085A
:1007000064000020680000206C00002070000020C1
:1007100074000020780000200000000000000000AD
:10072000000000000000000000000000E4000020C5
:1007300000000000000000000000000000000000B9
:10074000000000000000000000000000F600002093
:1007500000000000000000000D000000000000008C
:040760000000000095
:04000005080000C12E
:00000001FF
