:020000040000FA
:100000004821002065010000690100006B0100002B
:1000100000000000000000000000000000000000E0
:100020000000000000000000000000006D01000062
:1000300000000000000000006F01000071010000DE
:1000400073010000750100007701000079010000D4
:100050007B0100007D0100001104000091040000FC
:100060008301000085010000870100008901000074
:100070008B0100008D0100008F0100009101000044
:100080009301000095010000970100009901000014
:100090009B0100009D0100009F010000A1010000E4
:1000A000A30100000000000000000000A501000006
:1000B000A7010000A9010000AB010000AD01000094
:1000C00000F002F800F03EF80CA030C80838241800
:1000D0002D18A246671EAB4654465D46AC4201D180
:1000E00000F030F87E460F3E0FCCB6460126334274
:1000F00000D0FB1AA246AB46334318470C0700005A
:100100002C070000103A02D378C878C1FAD85207F9
:1001100001D330C830C101D504680C6070470000BD
:100120000023002400250026103A01D378C1FBD813
:10013000520700D330C100D50B6070471FB51FBDFB
:1001400010B510BD00F047F81146FFF7F7FF00F0BB
:1001500017FA00F05FF803B4FFF7F2FF03BC00F0FA
:1001600065F8000015480047FEE7FEE7FEE7FEE7FA
:10017000FEE7FEE7FEE7FEE7FEE7FEE7FEE7FEE757
:10018000FEE7FEE7FEE7FEE7FEE7FEE7FEE7FEE747
:10019000FEE7FEE7FEE7FEE7FEE7FEE7FEE7FEE737
:1001A000FEE7FEE7FEE7FEE7FEE7FEE7FEE700000C
:1001B00003480449044A054B70470000C100000091
:1001C000480100204821002048110020481100204B
:1001D000704770477047754600F024F8AE4605003A
:1001E00069465346C008C000854618B020B5FFF7E1
:1001F000DFFF60BC00274908B6460026C0C5C0C561
:10020000C0C5C0C5C0C5C0C5C0C5C0C5403D49000A
:100210008D46704710B50446C046C0462046FFF7DD
:100220009AFF10BD00487047E800002001491820DF
:10023000ABBEFEE7260002007047F0B58E460121F6
:10024000FF228C46A0211346002514E0047862406A
:100250000024401C1F4616465B085208FF0701D0C9
:1002600080273A43F60702D04B4066467240641C32
:10027000082CEFD36D1C7545E8DB10021843F0BD68
:100280000748C16902011143C1610748054A42603C
:1002900000218160C26041614A1E8261C161704774
:1002A00000000240FFFF000000800A400748C169CB
:1002B00042011143C1610748054941600022826043
:1002C000C16042618161C26170470000000002406C
:1002D000FFFF000000000B400748C1698201114385
:1002E000C16107480549416000228260C1604261E6
:1002F0008161C2617047000000000240FFFF000002
:1003000000800B400748C169C2011143C161074821
:100310000549416000228260C16042618161C26121
:100320007047000000000240FFFF000000000C408A
:100330000748C16902021143C1610748054941608C
:1003400000228260C16042618161C2617047000029
:1003500000000240FFFF000000800C400748C16918
:1003600002031143C16107480549416000228260D0
:10037000C16042618161C2617047000000000240BB
:10038000FFFF000000800E400648C16910221143A3
:10039000C1610549416005218160FF210731C160CC
:1003A00070470000000002400408000010B510482B
:1003B000C16940221143C161816AC2011143816256
:1003C000816A6522114381620A48022141621C212F
:1003D00081626021C162084901633021816305485F
:1003E0004030416000218160062000F007F810BD18
:1003F000000002400000034001030000C106C90ED6
:1004000001208840014908607047000000E100E0D9
:1004100070B51C4AD06B1B4DC006403500261A49EA
:10042000002819DA1020686014680C70174B88696E
:100430001C545C78102C01D0082303E0062802D15C
:100440009B7909330B61401C88610B69984203DB7F
:10045000012088608E614861D06B800610D5202015
:100460006860C86801280BD1CE6006E093691B065E
:1004700003D54B681B5C1360401C0B699842F5DB8D
:1004800070BD00000000034000000020400000207C
:1004900070B51C4AD06B1B4DC006403500261A496A
:1004A00000281ADA1020686014680C70174B8869ED
:1004B0001C545C78102C01D0082303E0062802D1DC
:1004C0009B7909330B61401C88610B69984204DBFE
:1004D0000120886002208E614861D06B800610D5B3
:1004E00020206860C86801280BD1CE6006E09369BF
:1004F0001B0603D54B681B5C1360401C0B699842BC
:10050000F5DB70BD008003400000002040000020AB
:1005100030B50446007801281FD1154801686018DD
:100520001E38427F037F1002184345BA2046891EB9
:10053000FFF783FE0F49854248800ED10020488096
:1005400060780D490D4A032808D006280BD01028E2
:1005500003D10968106800F009F930BD0968106816
:1005600000F070F830BD0968106800F0CDF830BDBB
:10057000100000201C0000201400002004000020B7
:100580002648372182681180C268022111800269E1
:1005900003211180426904211180806905210180B5
:1005A000FFF7F2FEFFF76CFEFFF780FEFFF794FE09
:1005B000FFF7FCFEFFF7A6FEFFF7BAFEFFF7CEFE41
:1005C000184D174C2C60184E346018490C60184FA9
:1005D0003C6018480460184A1460184801680129F2
:1005E00005D10021016016480068FFF791FF2868D7
:1005F000604028603068604030600C4801686140AD
:1006000001603868604038600A49086860400860E6
:100610000949086860400860DFE700001C0000200E
:10062000FFFF000000800A4000000B4000800B40EC
:1006300000000C4000800C4000800E4008000020AC
:100640000400002070B504460E46C078A178000270
:100650000843274D40BAE8616079217900020843D8
:1006600040BA2870002016E0E969224A09186B7820
:100670004900515CE318D9706978491CC9B26970A6
:10068000EB6961181B185B009A189278CA70697838
:10069000491C6970801C297849008142E4DC697832
:1006A000A1702046C91CFFF7C8FD68806978000A60
:1006B0006118C8706878401CC0B26870A9782018AA
:1006C000C17068780C49001D08600020E86128703E
:1006D0006880687001200949012E086005D0022E4B
:1006E00002D120780649086070BD20780549FAE7F4
:1006F0001C00002068000020100000200C000020DA
:10070000008003400000034030B5C27883781202B5
:100710001A43104B52BADA614479057924022C430A
:100720000D4D64BA5200AC525C680022A25E0B4CC4
:1007300022600022DA610122094B01291A6005D0EA
:10074000022902D100780749086030BD00780649C7
:10075000FAE700001C0000206800002000800B4029
:100760000C0000200080034000000340F3B5044665
:10077000C078A178000208431D4D46BAEE61607949
:1007800021790002084340BAC7B22F70A0792862CD
:100790000020184908E022183318D2795B00CA52A9
:1007A0006A78521C6A70401CB842F4DB002626713D
:1007B0006878607106212046FFF73FFD010AA171AC
:1007C000E0710D49012008600C49082008606E7036
:1007D0006E80EE612E702E620198012805D00228ED
:1007E00002D1207806490860FCBD20780549FAE767
:1007F0001C000020680000200C00002010000020D9
:100800000080034000000340280800000000002092
:1008100040000000040100006808000040000020C3
:10082000082100002001000000000000400000201E
:1008300000000000000000000000000000000000B8
:100840000000000000000000680000206C00002094
:100850007000002074000020780000207C00002040
:08086000000000000000000090
:04000005000000C136
:00000001FF
